:020000040800F2
:10000000B8300020F1010008F72300080922000899
:10001000CD230008F3070008B144000800000000E9
:100020000000000000000000000000006D28000833
:100030009108000800000000AD2600086F280008A5
:100040000B0200080B0200080B0200080B0200085C
:100050000B0200080B0200080B0200080B0200084C
:100060000B0200080B0200080B0200080B0200083C
:100070000B0200080B0200080B0200080B0200082C
:100080000B0200080B0200080B0200080B0200081C
:10009000E14000080B0200080B0200080B020008F8
:1000A0000B0200080B0200080B0200080B020008FC
:1000B0000B0200080B0200080B0200080B020008EC
:1000C0000B0200080B0200080B0200080B020008DC
:1000D0000B0200080B0200080B0200080B020008CC
:1000E0000B0200080B0200080B0200080B020008BC
:1000F0000B0200080B0200080B0200080B020008AC
:100100000B0200080B0200080B0200080B0200089B
:100110000B0200080B0200080B0200080B0200088B
:100120000B0200080B0200080B0200080B0200087B
:100130000B0200080B0200080B0200080B0200086B
:100140000B0200080B0200080B0200080000000070
:10015000000000000000000000000000000000009F
:100160000000000000000000000000000B0200087A
:100170000B0200080B0200080B0200080B0200082B
:100180000B0200080B0200080B0200080B0200081B
:100190000B02000800000000950800080B02000890
:1001A000970800080B0200080B0200080B02000869
:1001B0000B0200080B0200080B0200080B020008EB
:1001C0000B0200080B0200080B0200080B020008DB
:1001D0000B0200080B020008DFF810D000F03EFA16
:1001E0000048004739510008AFF30080B8300020C4
:1001F0000648804706480047FEE7FEE7FEE7FEE7C1
:10020000FEE7FEE7FEE7FEE7FEE7FEE70929000856
:10021000D901000840EA01039B0703D009E008C99F
:10022000121F08C0042AFAD203E011F8013B00F8BB
:10023000013B521EF9D27047D2B201E000F8012B07
:10024000491EFBD270470022F6E710B513460A4656
:1002500004461946FFF7F0FF204610BD30B50B46A7
:10026000014600202022012409E021FA02F59D42E6
:1002700005D303FA02F5491B04FA02F52844151EBA
:10028000A2F10102F1DC30BD2DE9F05F054600204E
:1002900092469B4688460646814640241BE02846F7
:1002A00041464746224600F0FAF953465A46C01ADC
:1002B000914110D311461846224600F0E1F92D1A5B
:1002C00067EB01084F4622460120002100F0D8F9D3
:1002D00017EB00094E41201EA4F10104DFDC484663
:1002E00031462A464346BDE8F09F2DE9FE4F804641
:1002F00081EA0300C00F0C46009021F0004123F07A
:100300000045B8EB0200A94105D24046214690467F
:100310001C460B46024623F00040104347D0270DF1
:10032000C7F30A00C3F30A510290401A0190402813
:100330006BDAC3F3130040F4801B0098924620B19F
:100340000023D2EB030A63EB0B0B01985946C0F173
:100350004002504600F094F906460D465046594674
:10036000019A00F0ACF910EB08006141002487EA23
:10037000115284EAE7731A4340D0009A62B3019A9B
:10038000012A4FEA075215DC001B61EB02014FF016
:10039000004202EA0752CDE90042001C41F58011FB
:1003A00032462B4600F0ACF903B0BDE8F08F404672
:1003B0002146F9E7001B61EB0201001C41F58013A7
:1003C00000185B412018A2F5001747EB030140EA33
:1003D000D570B6196D4111E06D084FEA360645EA51
:1003E000C0754FEA0752001B61EB0201001C41F58A
:1003F000801149084FEA30000019514132462B461E
:1004000003B0BDE8F04F00F06CB900980122400045
:100410000023D0EB020263EBE073009821464FEA21
:10042000E074B8EB000061EB0401E9E783F00043FE
:100430005BE781F0004158E72DE9FE4F81EA0304B4
:1004400004F0004421F0004100944FF0000B23F031
:10045000004350EA01045ED052EA03045BD0C3F3C8
:100460000A54C1F30A552C44A4F2F3340194A0FBBE
:100470000254C1F3130141F48011C3F3130343F495
:10048000801301FB024400FB034E840A970A44EAEE
:10049000815447EA8357A4FB076802958D0A05FB40
:1004A00007854FEA932C04FB0C542705029D4FEA65
:1004B000065847EA1637B5EB08056EEB070C870EB2
:1004C000920E47EA811742EA8312A7FB0201B6EBBC
:1004D0000B0164EB00042B0D43EA0C335E1844EB74
:1004E0001C50DA465146E7FB0201C5F313044FEAFC
:1004F0000B3343EA14534FEA0432019C43EA0603E8
:10050000A4F10C040294009CCDE900B400F0F8F8CA
:1005100003B0BDE8F08F00200146F9E72DE9F04D6A
:1005200081EA030404F0004B21F0004514464FF02B
:10053000000A23F0004150EA050220D054EA0102EB
:100540001DD0C5F30A570246C5F31303C1F31300C8
:10055000C1F30A5640F4801543F48013A7EB060854
:10056000101BD64608F2FD3873EB050002D308F1E4
:10057000010801E092185B41B8F1000F03DA002096
:100580000146BDE8F08D00204FF4801106468446F8
:100590000EE0171B73EB050705D3121B63EB050376
:1005A00006434CEA010C49084FEA300092185B41BF
:1005B00050EA0107EDD152EA030012D082EA0400AA
:1005C00083EA0501084305D0101BAB4106D2012286
:1005D000002306E000224FF0004302E06FF001022A
:1005E00053101AEB06004CEB085110EB0A0041EBDC
:1005F0000B01BDE8F04D00F074B8C1F30A52C1F32D
:10060000130140F2FF3341F480119A4202DA0020D4
:100610000146704740F233439A42A2F2334202DC71
:10062000524200F03CB800F02BB8000030B5041E78
:1006300071F1000404DB4FF00044404264EB01011F
:10064000141E73F1000405DB1C464FF000435242B8
:1006500063EB0403994208BF904230BD064C074D3E
:1006600006E0E06840F0010394E807009847103482
:10067000AC42F6D3FFF7B4FD785200089852000858
:10068000202A04DB203A00FA02F100207047914052
:10069000C2F1200320FA03F3194390407047202A47
:1006A00004DB203A21FA02F00021704721FA02F31C
:1006B000D040C2F120029140084319467047202AD9
:1006C00006DBCB17203A41FA02F043EAE07306E07A
:1006D00041FA02F3D040C2F120029140084319468A
:1006E000704710B5141E73F1000408DA401C41F184
:1006F000000192185B411A4301D120F0010010BDA6
:100700002DE9F04D92469B4611B1B1FA81F202E01B
:10071000B0FA80F220329046FFF7B2FF04460F464F
:1007200040EA0A0041EA0B0153465A46084313D0F7
:10073000114653EA010019D0C8F140025046FFF7B4
:10074000AEFF05460E46504659464246FFF798FF13
:10075000084305D0012004E020463946BDE8F08D6D
:100760000020054346EAE0762C4337430A986305A8
:10077000E40AA0EB08000022FD0A44EA47540A30CC
:1007800002D500200146E9E7010510196941DDE9BC
:10079000084500196941BDE8F04DA2E770B58C1815
:1007A00010F8015B15F0070301D110F8013B2A1185
:1007B00006D110F8012B03E010F8016B01F8016B72
:1007C0005B1EF9D12B0705D40023521E0DD401F86E
:1007D000013BFAE710F8013BCB1A921C03E013F837
:1007E000015B01F8015B521EF9D5A142D8D300206C
:1007F00070BDFEE704284FF00000704700207047EE
:1008000010B500220449054802F0E2F90449034802
:1008100002F0D8F9002010BDD01A0020900D002061
:10082000E816002010B50146034802F0CBF9024853
:1008300002F09CF9002010BD900D002010B50A4672
:100840000849D1F8B812D1F81412002901D00120BA
:1008500010BD0146034802F0BBF9BDE81040014855
:1008600002F030BA900D002070B504460D46002607
:1008700000F092FB2268904201D3801A01E0D1433C
:100880000844A84202D3012650192060304670BDAA
:100890007047704770477047124A107F124901280D
:1008A00001D003280BD10B6843F400630B600B6885
:1008B00023F400630B600B6843F400730B600228A1
:1008C00001D003280BD1086840F480500860086804
:1008D00020F480500860086840F4806008600020C0
:1008E000107770478C000020002002400D490A6AF2
:1008F00052020CD5C20703D04A6942F004024A6191
:10090000800709D5486940F40040486104E048691F
:1009100048F2040210434861486940F4803048615D
:100920007047000000200240114A136A5B0204D4A1
:10093000516921F4006151610AE0C90704D051698D
:1009400021F40061516103E0516941F4006151619A
:100950005169C0B221F47E7141EAC0005061506912
:1009600040F002005061506940F48030506170479F
:100970000020024010B505494C6944F001044C6167
:100980000260BFF36F8F436010BD00000020024083
:1009900010B54022084B5C6944F480245C61EFF39D
:1009A000108372B610C910C0521ED2B2002AF9D1FB
:1009B00083F3108810BD00000020024070B505468A
:1009C00000F0EAFA0646154C06E000F0E5FA801B56
:1009D000A84201D9032070BD2069C003F5D4206965
:1009E0004CF2FA31084088B10D494A6802434A6026
:1009F000010F04D0A16900F070421143A16101010F
:100A000002D020F070402061012070BD2069C00735
:100A100001D001202061002070BD000000200240B4
:100A20008C00002040F212410148FFF70CBC00008E
:100A3000C401002070B50C4909680C4CCB054FF679
:100A4000FF7621884FF400224FF00065B14202D0BA
:100A5000218809048A0905EB5201814201D901204C
:100A600070BD022070BD000000000140E075FF1F56
:100A700010B50A4C4FF6FF734FF4002122889A42BA
:100A800002D02188090489094FF0006404EB510465
:100A9000A0F10061C90A084610BD0000E075FF1F03
:100AA00010B5044600F078FA206010BD10B50B4870
:100AB0000168001D0468001D0068084400280BD070
:100AC0000822074901F0B2FB054920460422BDE88F
:100AD0001040103101F0AABB10BD00009075FF1F3F
:100AE0005600002070B5044600F056FA0546601C1A
:100AF00002D004484068044400F04EFA401BA04273
:100B0000FAD370BD800000202DE9F05F04468846CE
:100B10003C4F387801280BD001253D704FF47A7B8B
:100B20005846FFF74BFF06464FF0000A1EB164E03F
:100B30000220BDE8F09FC7F804A0DFF8CC90D9F8F8
:100B40000000800514D5D9F8000020F40070C9F821
:100B50000000D9F80000400508D5D9F8000020F4BD
:100B60008060C9F800000320387710E03D770EE080
:100B7000D9F80000400508D5D9F8000020F48060BD
:100B8000C9F800000220387701E087F81CA020682F
:100B9000012807D04FF0FF30C8F80000A56840F2E8
:100BA000FA3B23E06068FFF7A1FE5846FFF706FF17
:100BB0000646D9F8140048F204018843C9F8140025
:100BC00019E028466168FFF7AFFE4FF47A70FFF72F
:100BD000F5FE0646D9F8140020EA0B00C9F8140007
:100BE000300002D0C8F8005005E06D1CD4E90201C5
:100BF0000844A842E5D8FFF74FFE87F800A030462A
:100C000097E700008C0000200020024001200549E9
:100C10004A6942F000424A614969002900DA00202D
:100C200070470000002002402DE9F05F07468B4628
:100C300014461D460026DFF8688098F80000012859
:100C40000AD0012088F800004FF47A7A5046FFF766
:100C5000B5FEB14618B120E00220BDE8F09FC8F80B
:100C6000049027B1012F09D0022F07D00DE02246B2
:100C70002B465846FFF77EFE012606E021465846E1
:100C8000FFF786FE022F00D17E045046FFF796FE46
:100C90001EB104494A69B2434A6188F80090DCE712
:100CA0008C00002000200240002006494A69002AEA
:100CB00007DA054A8A60054A8A604969002900DA2C
:100CC000012070470020024023016745AB89EFCD2A
:100CD0002DE9F04F0022DFF8F4804FF0010C0F27D0
:100CE0006FE00CFA02F4A1460C40002C68D022F010
:100CF000030303EB0805AB6896074FEA167A07FA79
:100D00000AF606EA030BB0F1904F04D0304B98423C
:100D100003D1012316E0002314E02E4B984201D1A9
:100D200002230FE02C4B984201D103230AE02B4B06
:100D3000984201D1042305E0294B984201D10523B3
:100D400000E0062303FA0AF35B451ED1DFF894A006
:100D5000DAF80030A343CAF800300AF1040ADAF8DE
:100D60000030A343CAF800300AF1040ADAF8003070
:100D7000A343CAF800300AF1040ADAF80030A343AA
:100D8000CAF80030AB68B343AB6004685500032376
:100D9000AB401C430460D40800EB8404266A55076A
:100DA0004FEAD56A07FA0AF5AE43266284689C4387
:100DB0008460446824EA09044460C4689C43C460B5
:100DC000521C31FA02F38CD1BDE8F08F00000140D3
:100DD0000004004800080048000C004800100048CB
:100DE00000140048000401402DE9F84F0022DFF80C
:100DF0007C81DFF878A14FF0010E4FF00F0C08F165
:100E000004090AF10C0AA9E00EFA02F63340002B9D
:100E100070D04C68022C01D0122C11D1D40800EBF8
:100E200084073D6A5407E40E0CFA04FB25EA0B051F
:100E3000D1F810B00BFA04FB4BEA050BC7F820B051
:100E4000076854000325A540AF4391F804B00BF0A8
:100E5000030B0BFA04FB4BEA070BC0F800B04F681A
:100E6000012F05D0022F03D0112F01D0122F11D145
:100E70008768AF43D1F80CB00BFA04FB4BEA070BC1
:100E8000C0F808B04768B7430E79C6F3001696401D
:100E90003E434660C668AE438D68A5403543C56095
:100EA0004C68E40059D5324C256E45F001052566A5
:100EB000246E04F0010400942E4C22F003052E1938
:100EC000B7689407250F0CFA05F4A743B0F1904FCB
:100ED00004D0294CA04203D1012417E0002415E0DE
:100EE000264CA04201D1022410E0254CA04202D1A0
:100EF00003240BE031E0234CA04201D1042405E09F
:100F0000214CA04201D1052400E00624AC403C4322
:100F1000B460D8F800409C434D68ED0300D51C43F5
:100F2000C8F80040D9F800409C434D68AD0300D597
:100F30001C43C9F800400D4D08352C689C434E6891
:100F4000F60200D51C432C60DAF800409C434D6843
:100F5000AD0200D51C43CAF80040521C0B6833FA9E
:100F600002F47FF451AFBDE8F88F000000040140A7
:100F70000010024000000140000400480008004842
:100F8000000C00480010004800140048002A01D05E
:100F90008161704781627047014880687047000036
:100FA00080000020024881684268114481607047D7
:100FB0008000002010B50024032000F08BF80020F2
:100FC00000F008F808B1012401E000F029F82046FB
:100FD00010BD000070B5054600240F4E7068002853
:100FE00017D04FF47A71B1FBF0F00C490968B1FBEE
:100FF000F0F001F0F5F808B101240BE0102D06D255
:1010000000222946501E00F045F8356002E0012418
:1010100000E00124204670BD80000020AC000020CC
:1010200008B50B48016E41F001010166016E01F047
:1010300001010091816D41F080518165806D00F06A
:10104000805000900348816821F48041816008BD90
:10105000001002400070004000280DDB00F01F026D
:10106000012191404009800000F1E020C0F880118A
:10107000BFF34F8FBFF36F8F7047002809DB00F07D
:101080001F02012191404009800000F1E020C0F8DA
:1010900000117047F0B40D460D4B1B68C3F30223DB
:1010A000C3F10704042C00D90424191D072901D217
:1010B000002300E0DB1E012606FA04F1491E294048
:1010C00099409E40761E16403143F0BC03F0D6BADC
:1010D0000CED00E000F00701054A10684FF6FF0331
:1010E000184040EA0120034908431060704700009F
:1010F0000CED00E00000FA0501680122C0F868224A
:10110000002280F8602231F8540F40F0010008807E
:10111000088840F0020008800020704770B504463F
:101120000F4D00290DD001290AD1D4F8700202F028
:1011300099F9A069002803D0286840F006002860CB
:1011400070BDA06928B101F094FB286820F006006A
:101150002860D4F87002BDE8704002F019B90000B0
:1011600010ED00E010B50C0605D501F0070100EB0D
:101170004110283003E000EB411000F5947099B263
:1011800032B1012202730181190C4181002010BD8E
:1011900000220273C180F9E700EB4112D0F870021F
:1011A000D26B01F0ADBF00EB4112D0F87002D2F863
:1011B0003C2102F010B810B50446002C0CD00320DE
:1011C00084F82902204600F0ABFA204600F0FAF934
:1011D000002084F8290210BD012010BD70B504461E
:1011E0000B0601F0070004EB40114FF001024FF035
:1011F000000502D528314A7002E001F594714D7066
:10120000087094F82802012808D084F82822206861
:1012100002F042FD84F82852002070BD022070BD0B
:1012200070B5044601F00F006268904201D90120B8
:1012300070BD0B0601F0070004EB40114FF00102F6
:101240004FF0000502D528314A7002E001F5947193
:101250004D708D70087094F82802012808D084F829
:101260002822206802F0D2FD84F82852002070BDA8
:10127000022070BD01F0070100EB4110D0F84401DD
:1012800070472DE9F04104460F0601F0070004EB1A
:1012900040114FF001064FF0000502D528314E7085
:1012A00002E001F594714D7008700A61CB704A78C4
:1012B00002B1C881022B00D10D7194F828020128D7
:1012C00009D084F82862206802F008FB284684F8D8
:1012D0002852BDE8F0810220FBE770B50D4605F00D
:1012E000070400EB441101F594714A618B610022FF
:1012F000CA614A700C706A0704D0006802F0E6FD0B
:10130000002070BD006802F0E1FDF9E770B5044609
:101310000D46616805F00700884201D9012070BDC3
:1013200029064FF000064FF0010204D504EB4011EE
:1013300028314A7004E004EB451101F594714E70B8
:101340008A70087094F82802012807D084F82822AF
:10135000206802F09DFD680702D006E0022070BD03
:1013600004F50C71206802F04FFD84F8286200201B
:1013700070BD70B50D4605F0070400EB441128312F
:101380004A618B610022CA6101224A700C706A07AF
:1013900004D0006802F09AFD002070BD006802F0E1
:1013A00095FDF9E710B50446206802F09FFE0004A1
:1013B00002D5204601F020F8206802F097FE400593
:1013C0000CD5206830F8441F21F48061018020464C
:1013D00000F04AF90021204600F072F9206802F07E
:1013E00085FE400405D5206830F8441F21F4804173
:1013F0000180206802F07AFE800405D5206830F86C
:10140000441F21F400510180206802F06FFEC004E7
:101410001FD5206830F8401F21F0040101802068AA
:1014200030F8401F21F00801018094F86002012883
:1014300006D1002084F8600200212046FFF76EFEEE
:10144000204600F025F9206830F8441F21F480512F
:101450000180206802F04AFE00051AD5206830F8A5
:10146000401F41F008010180206830F8441F21F43A
:1014700000610180206830F8401F41F004010180C4
:10148000206802F033FEC043C00402D5204600F0BD
:101490005DF9206802F02AFE00060BD5206830F8BE
:1014A000441F21F08001018094F86002E0B12046E1
:1014B00000F04CF9206802F019FE800508D520687C
:1014C00030F8441F21F400710180204600F0F4F848
:1014D000206802F00BFEC00505D5206830F8441FD7
:1014E00021F48071018010BD206830F8401F41F068
:1014F00004010180206830F8401F41F0080101809C
:10150000012084F860022068B0F8540000F0F00078
:101510008008C4F8640201212046FFF7FFFDC9E7F7
:1015200070B586B00446002C04D094F8290200253A
:1015300018B107E0012006B070BD84F8285220469B
:1015400000F05AF8032084F82902206802F054FCC5
:10155000002101260BE004EB411028304670017099
:10156000C181C570056145618561491CC9B260686A
:101570008842F0D800210BE004EB411000F5947094
:1015800045700170C570056145618561491CC9B22E
:1015900060688842F0D8142204F110016846FEF712
:1015A00039FE94E80F0002F01AFC84F8245084F805
:1015B0002962E069012802D12046FFF79DFD002045
:1015C000B9E7000010B50068094988420FD1094801
:1015D000816D21F4000181654FF4C0514FF09040BE
:1015E000FFF776FBBDE810401420FFF735BD10BDB6
:1015F000005C00400010024010B586B00446142183
:1016000001A8FEF720FE16492068884225D1154C16
:10161000E06C40F00100E064E06C00F0010000903C
:101620004FF4C050019002200290002003900490DB
:1016300001A94FF09040FFF7D7FBA06D40F40000E8
:10164000A065A06D00F40000009000221146142057
:10165000FFF720FD1420FFF710FD06B010BD0000BD
:10166000005C00400010024070B504460125A068EF
:10167000022801D0FFF70DF92946D4F8700201F0D5
:101680009DFED4F87002BDE8704001F058BE000025
:1016900010B50446A069002806D00648016821F06C
:1016A0000601016001F0E5F8D4F87002BDE81040D1
:1016B00001F06EBE10ED00E0D0F8700201F072BED5
:1016C00010B5044694F8280201280BD0012084F8B4
:1016D000280284F82410206802F020FD002084F8FD
:1016E000280210BD022010BDD0F8702200F50C7148
:1016F000104601F06FBE10B5044694F82802012888
:101700000CD0012084F82802206802F061FB2068D8
:1017100002F0DDFC002084F8280210BD022010BD7C
:1017200010B5044694F8280201280CD0012084F852
:101730002802206802F060FB206802F0F6FC00201E
:1017400084F8280210BD022010BD000010B5044628
:10175000D4F8700201F086FEA069002804D0034886
:10176000016841F00601016010BD000010ED00E0CD
:101770002F49304B0A6832214A432F4900280AD0AA
:10178000B0F5007F2DD0086820F4C06040F4806080
:101790000860002070470868C0F34120022805D087
:1017A00051F8800F20F480700860F2E7D1F88000D3
:1017B00020F48070C1F88000086820F4C06040F414
:1017C00000700860B2FBF3F0401C00E0401E4A6964
:1017D000520501D50028F9D148694005D9D5032023
:1017E00070470868C0F34120022805D051F8800FE7
:1017F00040F480700860CCE7D1F8800040F480703D
:10180000C1F88000086820F4C06040F400700860EF
:10181000B2FBF3F0401C00E0401E4A69520501D5BE
:101820000028F9D148694005B3D50320704700006E
:10183000AC00002040420F00007000402DE9F84F3E
:101840000446002600272068BE4D000366D54FF0F1
:101850000008A86DC00009D4A86D40F08050A865AC
:10186000A86D00F0805000904FF00108DFF8D8A27A
:10187000DAF8000040F48070CAF80000FFF78CFB33
:10188000814607E0FFF788FBA0EB0900022801D999
:10189000032603E0DAF80000C005F3D526B1374689
:1018A000B8F1010F36D039E0D5F8900000F440705F
:1018B00080B1216D81420DD055F8900F20F4407019
:1018C000296841F480312960296821F48031296038
:1018D00045F89009C00711D0FFF75EFB814641F241
:1018E000883A07E0FFF758FBA0EB0900504501D903
:1018F000032603E0D5F890008007F3D50EB13746F4
:10190000CEE7D5F89000216D20F440700843C5F86B
:101910009000C5E7A86D20F08050A8652078C0072A
:1019200007D0D5F88800616820F003000843C5F8A7
:1019300088002078800707D5D5F88800A16820F0B6
:101940000C000843C5F888002078400707D5D5F873
:101950008800E16820F030000843C5F8880020784E
:10196000000707D5D5F88800216920F0C00008439A
:10197000C5F888002078C00607D5D5F888006169C9
:1019800020F440700843C5F888002078800607D509
:10199000D5F88800A16920F440600843C5F88800A4
:1019A0002078400607D5D5F88800E16920F440503A
:1019B0000843C5F888002078000607D5D5F88800C8
:1019C000216A20F440400843C5F888002088C005FB
:1019D00007D5D5F88800616A20F440300843C5F87F
:1019E00088002068800307D5D5F89C00A16A20F004
:1019F00003000843C5F89C002088800507D5D5F86A
:101A00008800E16A20F440200843C5F88800208857
:101A100040050FD5D5F88800216B20F4401008430D
:101A2000C5F88800206BB0F5801F03D1E86840F44A
:101A30008010E860208800050FD5D5F88800616B1C
:101A400020F440000843C5F88800606BB0F5800FB3
:101A500003D1E86840F48010E8602088C0040FD506
:101A6000D5F88800A16B20F040700843C5F88800C5
:101A7000A06BB0F1807F03D1E86840F48010E8608B
:101A800020884FF0006180040ED5D5F88800E26B05
:101A900020F040601043C5F88800E06B884203D115
:101AA000E86840F48010E860208840040ED5D5F83E
:101AB0008800226C20F040601043C5F88800206C3C
:101AC000884203D1E86840F48010E8602088000470
:101AD0000FD5D5F88800616C20F040500843C5F858
:101AE0008800606CB0F1805F03D1E86840F480301A
:101AF000E8602068C0030FD5D5F88800A16C20F0FD
:101B000040400843C5F88800A06CB0F1804F03D175
:101B1000E86840F48030E860206840030FD5D5F8CD
:101B20009C00E16C20F440100843C5F89C00E06C78
:101B3000B0F5001F03D1E86840F48010E860384633
:101B4000BDE8F88F00100240007000402DE9F0471A
:101B500004460D460027002C17D0DFF8A091D9F8D5
:101B6000000000F00F00A84211D2D9F8000020F0C8
:101B70000F002843C9F80000D9F8000000F00F005A
:101B8000A84204D00120BDE8F0870120FBE72078BF
:101B90005B4EC00741F2883A4ED06068DFF864813E
:101BA000032806D002281ED03068400520D401202A
:101BB000E9E73068800101D40120E4E700F014FE79
:101BC000404520D9B06810F0F00F04D0207880078D
:101BD00019D5A068B8B9B06820F0F00040F08000D6
:101BE000B06080270FE03068800301D40120CAE78D
:101BF00000F090F8404506D9B06820F0F00040F0C1
:101C00008000B0608027B068616820F0030008435E
:101C1000B060FFF7C1F9804607E0FFF7BDF9A0EB20
:101C20000800504501D90320ADE7B068616800F0B5
:101C30000C00B0EB810FF0D12068810715D540076B
:101C400003D5B06840F4E060B0602078000705D5A7
:101C5000B06820F4605040F4E060B060B068A16803
:101C600020F0F0000843B06005E0802F03D1B06899
:101C700020F0F000B060D9F8000000F00F00A8429A
:101C800017D9D9F8000020F00F002843C9F8000048
:101C9000FFF782F9074606E0FFF77EF9C01B5045C3
:101CA00001D903206FE7D9F8000000F00F00A84227
:101CB000F2D12078400705D5B068E16820F4E060F3
:101CC0000843B0602078000706D5B068216920F489
:101CD000605040EAC100B06000F01CF8B1680A4AE8
:101CE000C1F30311515C01F01F01C84007490860AE
:101CF00007480068BDE8F047FFF76CB900200240D4
:101D00000010024000B4C40468520008AC00002077
:101D10008000002010B51A4A9068C0F3810119486C
:101D200001290BD091684410C1F38101022906D02A
:101D30009168C1F38101032903D0002010BD204622
:101D400010BDD16801F00303D168C1F30311491C30
:101D5000032B0DD0B0FBF1F0D168C1F3062148434D
:101D6000D168C1F34161491C4900B0FBF1F010BDDD
:101D7000B4FBF1F0D168C1F306214843F0E700005D
:101D8000001002400024F4002DE9F8430446002C22
:101D90000CD02078FE4DC00752D0A86800F00C008F
:101DA000E96801F003010C2803D004E00120BDE83C
:101DB000F883032916D0082814D06068B0F5803F56
:101DC00017D0B0F5A02F19D0286820F480302860F3
:101DD000286820F480202860606818B3FFF7DCF8DA
:101DE00006461BE0286880032AD5606840BB0120B6
:101DF000DDE7286840F480302860EDE7286840F48B
:101E000080202860286840F480302860E4E7FFF7ED
:101E1000C3F8801B642801D90320C8E72868800321
:101E2000F5D50DE0FFF7B8F8064606E0FFF7B4F881
:101E3000801B642801D90320B9E728688003F5D402
:101E4000207880074ED5A86800F00C00E96801F002
:101E500003010C2801D102290BD0042809D0E06825
:101E600070B3286840F480702860FFF795F8064644
:101E70001BE02868400501D5E06868B16868217CEE
:101E800020F0FE4040EA01606860C2480068FFF749
:101E9000A1F838B301208AE7012088E7FFF77CF832
:101EA000801B022801D9032081E728684005F5D569
:101EB0006868217C20F0FE4040EA0160686011E023
:101EC000286820F480702860FFF766F8064606E070
:101ED000FFF762F8801B022801D9032067E7286812
:101EE0004005F5D4207800072CD56069A8B1D5F855
:101EF000940040F00100C5F89400FFF74DF8064645
:101F000006E0FFF749F8801B022801D903204EE7BD
:101F1000D5F894008007F4D514E0D5F8940020F0AB
:101F20000100C5F89400FFF737F8064606E0FFF712
:101F300033F8801B022801D9032038E7D5F8940034
:101F40008007F4D4207840076FD54FF00008A86DC3
:101F5000C00009D4A86D40F08050A865A86D00F0BD
:101F6000805000904FF001088B4E3068C00511D4AE
:101F7000306840F480703060FFF70EF8074606E0E6
:101F8000FFF70AF8C01B022801D903200FE73068C9
:101F9000C005F5D5A068012813D0052818D055F83C
:101FA000900F20F001002860286820F0040045F818
:101FB0009009A06841F2883608B3FEF7EDFF0746A6
:101FC00018E0D5F8900040F00100C5F89000F0E767
:101FD00055F8900F40F004002860286840F0010098
:101FE00045F89009E5E7FEF7D7FFC01BB04201D9DD
:101FF0000320DCE6D5F890008007F4D50EE0FEF76C
:10200000CBFF074606E0FEF7C7FFC01BB04201D971
:102010000320CCE6D5F890008007F4D4B8F1010F86
:1020200003D1A86D20F08050A865207880062CD5BB
:10203000A069A8B1D5F8980040F00100C5F8980053
:10204000FEF7AAFF064606E0FEF7A6FF801B022861
:1020500001D90320ABE6D5F898008007F4D514E049
:10206000D5F8980020F00100C5F89800FEF794FF1D
:10207000064606E0FEF790FF801B022801D90320E8
:1020800095E6D5F898008007F4D4E069F0B3A96824
:102090004FF0FF37C1F38101032962D002280FD02E
:1020A000286820F080702860E86820F00300E8606D
:1020B000E8683A490840E860FEF76EFF04464CE0E5
:1020C000286820F080702860FEF766FF064606E06C
:1020D000FEF762FF801B022801D9032067E628680B
:1020E0008001F5D454F8201F6068228A401E41EA1E
:1020F0000010A16807EB5202090241EA425108436D
:10210000217D07EB510140EA416000E066E0217B60
:1021100040EAC160E968224A11400843E860286843
:1021200040F080702860E86840F08070E860FEF75A
:1021300033FF044606E0FEF72FFF001B022801D9FB
:10214000032034E628688001F5D547E0FEF724FF38
:10215000001B022801D9032029E628688001F5D454
:102160003CE0012838D0E868226A00F0030191427F
:1021700030D1616A00F0F002491EB2EB011F29D193
:10218000A26A00F4FE41B1EB022F23D10AE0000065
:10219000001002408000002000700040FFFFEEFEB3
:1021A0000C809F0194F82C1000F07842B2EBC16FC4
:1021B00010D1228E00F4C00107EB5202B1EB425F56
:1021C00008D194F8341000F0C06007EB5101B0EB77
:1021D000416F03D00120EAE50120E8E50020E6E5B3
:1021E00010B5401EB0F1807F01D3012010BD4FF02B
:1021F000E02460610F21601702F040FA0020A06126
:1022000007202061002010BD4FF48055064C6E0061
:10221000012229462046FEF7B9FE0122314620461A
:10222000FEF7B4FEF4E7000000040048F0B5002318
:102230000A2530263727002412E0B5EB107F04D999
:1022400006EB107C01F813C003E007EB107C01F8EB
:1022500013C0000101EB430C8CF801405B1CDBB2A6
:102260009342EAD3F0BD00002DE9F041204C4FF439
:102270008057204D20787E00002809D04FF47A71D5
:10228000012816D0002502282AD02570BDE8F0814B
:102290001748001DFEF704FC012239462846FEF7C8
:1022A00075FE012231462846FEF770FE012020709F
:1022B000ECE70F48001DFEF7D7FA0028E6D00C48DF
:1022C000001DFEF7EDFB002239462846FEF75EFEB4
:1022D000002231462846FEF759FE02202070D5E73D
:1022E0000348001DFEF7C0FA0028CFD02570CDE7C7
:1022F000140000200004004800B587B0142102A893
:10230000FDF7A1FF1748C16C41F00401C164C16C25
:1023100001F004010191C16C41F02001C164C16C64
:1023200001F020010191C16C41F00101C164C16C57
:1023300001F001010191C16C41F00201C164C06C66
:1023400000F0020001904FF46A50029001200390C7
:1023500000200490059002A90348FEF745FD07B050
:1023600000BD00000010024000040048014800F0D9
:102370002BBD0000900D002010B500220F49104821
:1023800000F096FE08B1FEF784FA0E490C4801F001
:102390008EF808B1FEF77DFA0B49094800F0FFFB03
:1023A00008B1FEF776FA064801F032F9002803D0AA
:1023B000BDE81040FEF76DBA10BD00001C00002003
:1023C000900D00208C01002070000020FEE70FB46B
:1023D00010B5C0B043AA6846429902F03DF90446E0
:1023E000A2B2694640F6FF0002F07EF840B02046F7
:1023F00010BC5DF814FB70472DE9F05F044640F611
:102400008F7840F2064740F2024941E1B0F84410AB
:1024100001F00F0656B330F826A05FEA0A4174D5E2
:1024200030F8261001EA080141F0800120F826105A
:1024300004EB461505F59475287B00287ED0297895
:10244000206830F82120520479D5B0F8502009EBEB
:10245000C1010244515AC1F3090BBBF1000F04D072
:102460002A895B46696901F044FECCE0C9062CD498
:10247000018848F60F72114041F40041018004F1D7
:1024800028052068B0F850100844297809EBC101EC
:10249000405AC0F30900E861696908446861002195
:1024A0002046FEF779FE94F824000028ADD0A869F4
:1024B0000028AAD194F82400216840F08000A1F8F7
:1024C0004C00002084F82400E2E004F594750188B3
:1024D0000A051BD5B0F850100844297807EBC10154
:1024E000405AC0F30903EB61EA8804F50C712068D7
:1024F00001F0FFFD2068018801EA080141F0800138
:1025000001802046FFF7F0F8C2E09DE0090456D5AF
:10251000018801EA080141F0800101802068B0F8DB
:1025200050100844297807EBC101405AC0F3090054
:10253000E86188B1696979B183B201E040E052E0B5
:10254000EA88206801F0D5FDE96968690844686196
:1025500000212046FEF727FE2068B0F850100844FE
:1025600000F20640296959B13E2912D84A08C90724
:1025700000D0521C4FF6FF7101EA8221018011E068
:10258000018821F4F8410180018841F40041018073
:1025900008E04A09C90600D1521E4FF4004141EA41
:1025A00082210180206801884BF68F72114081F4EE
:1025B000805181F4005148F280021143018067E0AC
:1025C0002068B0F850102A78014407EBC202895AFB
:1025D000C1F3090BBBF1000F21D0EA885B466969A2
:1025E00001F087FD1BE0B0F8502007EBC101024469
:1025F000515AC1F3090BBBF1000F04D06A895B4645
:10260000696901F076FD2978206830F8212048F6C4
:102610008F731A4048F2C0031A4320F82120E8695A
:102620005844E861686900EB0B026A61AB6913B159
:102630002869584504D929782046FEF7B4FD03E0FF
:1026400029782046FEF749FE5FEA0A6020D504EBB0
:1026500046102830216831F8262048F60F731A40BA
:1026600042F4004221F826202168B1F8502011449C
:10267000027809EBC202895AC1F30901C1614269BA
:102680000A444261836963B101782046FEF771FE16
:102690002068B0F8441009043FF5B8AE0020BDE84A
:1026A000F09F01782046FEF777FDF1E770470000C4
:1026B0000FB42DE9F04FADF5017D384D9DF82E0298
:1026C000BDF82A1206029DF82F02A1F5807B321870
:1026D0009DF830429DF831724FF000094FF4006AC6
:1026E0008BAB4FF001084FF0020C92B2BBF1090F17
:1026F0001AD2DFE80BF0051919191919223B4B0002
:10270000304480B2A0F5006005280AD2DFE800F06E
:1027100009090903060085F80E8002E054B185F826
:102720000FC01FA0FFF753FE0DF5017DBDE8F00FB0
:102730005DF814FB85F80F80F3E7AA81200600EB13
:1027400007409DF8321200EB01209DF8331201443E
:10275000296017A0FFF73BFE8DF80490BDF82A1200
:10276000434601AA504601F0E5FEDDE76A812002FA
:10277000384482B22A820948991D1230FDF74AFD79
:102780002A8A298911A0FFF722FECDE78DF804904F
:10279000012301AA504601F0CDFEC5E7C401002087
:1027A00052656369766520416E737765720D0A0024
:1027B00046696C6553697A653A25752C546F746166
:1027C0006C426167733A25750D0A000043757242C9
:1027D00061673A25752C43757242616753697A6562
:1027E0003A25750D0A0000001049C86800F0030280
:1027F000C868C0F30310401C032A0ED00C4AB2FB79
:10280000F0F0CA68C2F306225043C968C1F34161BF
:10281000491C4900B0FBF1F07047064AB2FBF0F0EA
:10282000CA68C2F306225043EFE7000000100240DE
:102830000024F40000127A0070B5FF24054D06A0B4
:102840002968FFF7C4FD28680749884200D10124A0
:10285000E0B270BD000002087570617465466C617D
:10286000673A25303858000055AA55AA7047FEF738
:1028700099BBAFF3008010B5A8B038211AA8FDF7B6
:10288000E2FC142115A8FDF7DEFC54216846FDF793
:10289000DAFC0020FEF76CFF21201A904FF4803004
:1028A0001B90012020900220219003242294239049
:1028B0005021249125900821269127901AA8FFF7EE
:1028C00063FA08B1FDF7E5FF0F2015901694002478
:1028D000179418941994072115A8FFF737F908B130
:1028E000FDF7D7FF43F203000090019402944FF0EC
:1028F00000700E900F946846FEF7A0FF002801D0EC
:10290000FDF7C7FF28B010BD0548016841F470010C
:10291000016003494FF00060803908607047000093
:1029200088ED00E010B5002806D00A46054906A04B
:1029300000F08DFB034810BD0A46024902A000F0DA
:1029400086FBF7E7E814002043444320436F6E669C
:1029500069670000D0F8B802002804D00021C0F850
:102960001412002070470220704770B50546D5F854
:10297000B842284600F07BFCC4F80C02D5F8B80237
:1029800080B1D5F8BC12D4F80402CA6804F503710A
:102990009047D4F80C1219B1D4F8040201F08AFD62
:1029A000002070BD022070BD70B504460026812154
:1029B000204600F09CFB0025E5620121204600F046
:1029C00096FBC4F86C518221204600F090FB2564F0
:1029D000D4F8B80240B104F52E74606840688047AE
:1029E000206800F076FF2560304670BD1220088018
:1029F000004870474000002010B5D0F8B842D0F829
:102A0000BC1200290BD094F80002FF2807D08B6875
:102A100094F8012221469847FF2084F80002002004
:102A200010BD00000A21018000487047B40000205A
:102A300043210180004870470401002043210180A8
:102A400000487047C00000204321018000487047C3
:102A5000480100202DE9F041044600260127277493
:102A6000402302228121204600F054FCE7624023EB
:102A700002220121204600F04DFCC4F86C710823AD
:102A800003228221204600F045FC27644FF40770A2
:102A900000F020FFC4F8B80298B10546D4F8BC0293
:102AA0000068804705F5017500202861686127747A
:102AB0004023012120462A6800F038FC3046BDE85A
:102AC000F0810126FAE7000010B5002806D00A467A
:102AD000054906A000F0BBFA034810BD0A460249AA
:102AE00002A000F0B4FAF7E7E814002043444320C2
:102AF000496E746572666163650000000420088099
:102B0000004870473C00002010B50A46024903A067
:102B100000F09DFA004810BDE814002053544D69A0
:102B200063726F656C656374726F6E6963730000C6
:102B300010B5002806D00A46054906A000F087FA1D
:102B4000034810BD0A46024902A000F080FAF7E7E8
:102B5000E814002053544D33322056697274756165
:102B60006C20436F6D506F727400000010B5D0F888
:102B7000B812002911D0027C3AB1D1F804224023C6
:102B8000012100F0D3FB002010BDD1F804224FF446
:102B90000073012100F0CAFBF5E7022010BD0246D8
:102BA0000220002902D0C2F8BC12002070470000A9
:102BB00010B51A200880FDF779FF014810BD00000C
:102BC00054000020D0F8B802C0F80412002070476A
:102BD000D0F8B802C0F80812C0F8102200207047E0
:102BE0002DE9FC4105460C46D5F8B872002001904D
:102BF00000900026207810F060012DD0202907D009
:102C00002146284600F0A2F802263046BDE8FC81A5
:102C1000E288CAB100060BD5D5F8BC1260788B6883
:102C200039469847E2883946284600F0B5F8ECE77F
:102C3000607887F80002A07987F80102E2883946B7
:102C4000284600F08FF8E0E7D5F8BC126078002243
:102C50008B6821469847D8E7607848B10A2817D092
:102C60000B2825D02146284600F070F80226CCE734
:102C700095F89C02032805D02146284600F066F806
:102C80000226C2E702226946284600F085F8BCE722
:102C900095F89C02032805D02146284600F056F8F6
:102CA0000226B2E7012201A9284600F075F8ACE738
:102CB00095F89C020328A8D02146284600F046F843
:102CC0000226A2E710B5D0F8B812002912D0D1F828
:102CD00014220AB1012010BD01F502710122CA605F
:102CE0008A6802630A8993B20A68812100F0C2FBF4
:102CF000002010BD022010BD10B5D0F8B4225268DB
:102D00009047002010BD90F89C22012A05D0022A8D
:102D100003D0032A01D000F019B84988012904D151
:102D20000021C0F8A41200F044B8704710B5134653
:102D30000A46002100F0FAFA002010BD10B5134633
:102D40000A46002100F096FB002010BD10B5044695
:102D50008021204600F06BFB2046BDE8104000219A
:102D600000F065BB10B50323C0F89432C0F85C21B5
:102D7000C0F8602113460A46002100F0D7FA00206F
:102D800010BD10B50521C0F8941200231A4619464B
:102D900000F0CCFA002010BD10B50223C0F8943228
:102DA000C261026213460A46002100F063FB002064
:102DB00010BD10B50421C0F8941200231A4619461C
:102DC00000F058FB002010BD10B50446012084F827
:102DD0009C02D4F8B40221794268204690472046EC
:102DE00000F037FB204600F039FA002010BD0A46FB
:102DF000D188012902D01146FFF7A8BF90F89C1294
:102E0000012906D0022904D0032909D01146FFF771
:102E10009DBF00218160012200F10801FFF7BCBFC6
:102E20000122011DFFF7B8BF2DE9F84304460F4604
:102E300000200090002600257988080A062874D012
:102E400006DC012833D0022839D0032804D14CE015
:102E500007286BD00F281BD039462046FFF776FF96
:102E60000125002D12D1BDF8000048B1FA883AB111
:102E7000824200D90246009231462046FFF78CFF7D
:102E8000F888002802D12046FFF793FFBDE8F883B9
:102E9000D4F8B002C26922B1207C69469047064648
:102EA000DFE739462046FFF751FF0125D9E7D4F87F
:102EB000B012207C0A68694690470646D1E7207C1C
:102EC0004FF0020840B1D4F8B402C16A684688479E
:102ED000064686F80180C4E7D4F8B402816A6846E1
:102EE0008847064686F80180BBE7C8B2062860D24C
:102EF000DFE800F0031223324150D4F8B0024268F8
:102F000022B1207C694690470646AAE7394620460A
:102F1000FFF71CFF0125A4E7D4F8B002826832B1A4
:102F2000207C6946904706469BE748E056E03946D4
:102F30002046FFF70BFF012593E7D4F8B002C268E3
:102F400022B1207C6946904706468AE739462046EA
:102F5000FFF7FCFE012584E7D4F8B002026922B134
:102F6000207C6946904706467BE739462046FFF7B6
:102F7000EDFE012575E7D4F8B002426922B1207C4C
:102F80006946904706466CE739462046FFF7DEFE65
:102F9000012566E7D4F8B002826922B1207C694637
:102FA000904706465DE739462046FFF7CFFE0125EC
:102FB00057E739462046FFF7C9FE012551E7207C37
:102FC00028B139462046FFF7C1FE012549E7D4F86C
:102FD000B402416B68468847064642E7207C28B128
:102FE00039462046FFF7B2FE01253AE7D4F8B4028D
:102FF000016B6846884706460721717031E700215A
:1030000002E0491CC9B2401C0278002AF9D10846E6
:1030100070470A4690F89C12012906D0022904D074
:10302000032902D01146FFF791BED188022902D0B0
:103030001146FFF78BBE0021C160D0F8A41209B180
:103040000221C160022200F10C01FFF7A5BE70B59C
:1030500004460D461646002C17D02046FFF7CFFF3A
:10306000022101EB400030803078287003210220DB
:103070006970002306E0411CC9B22A54641C481C34
:10308000C0B26B542278002AF5D170BD01460020F1
:10309000002906D0012905D0022905D0032905D031
:1030A00002207047022070470120704702207047BD
:1030B00010B5002810D0D0F8B43213B10023C0F8F6
:1030C000B43209B1C0F8B012012180F89C1202702C
:1030D00000F0D2F8002010BD022010BD10B5D0F8CD
:1030E000C002FEF79DF8BDE81040FFF7CFBF10B556
:1030F000D0F8C002FEF772F8BDE81040FFF7C6BF77
:1031000070B504461346002909D0D4F8B4024269C8
:103110001AB194F89C02032859D0022070BD04F122
:103120001400D4F894120025022903D0042940D0B9
:10313000F1B342E0D0E903218A420DD9511AC160AE
:103140008AB219462046FFF7F9FD00231A461946B0
:10315000204600F0EBF830E08068B0FBF1F201FBB4
:1031600012029AB9884211D3D4F8981288420DD22B
:10317000002211462046FFF7E1FDC4F898520023D3
:103180001A461946204600F0D1F816E0D4F8B402E9
:10319000C16829B194F89C02032801D120468847D0
:1031A0008021204600F043F92046FFF7EAFD04E0C5
:1031B000FFE78021204600F03AF994F8A0020128A8
:1031C00007D1204600F07CF984F8A05201E02046A7
:1031D0009047002070BD70B504460846114600288F
:1031E00009D0D4F8B4128A691AB194F89C12032950
:1031F0002FD0022070BD04F5AA70D4F89432032BAE
:1032000002D0052B1DD027E0D0E903539D420AD9F7
:10321000EB1AC3600069834200D303469AB220468A
:10322000FFF784FD18E0D4F8B402016929B194F8DD
:103230009C02032801D1204688472046FFF7B9FDAC
:103240000AE00020C4F894020021204600F0EFF8C4
:1032500002E0014620469047002070BD10B5D0F82E
:10326000C002FDF7A8FFBDE81040FFF70FBFD0F880
:10327000C002FDF7FFBF000010B504461C48C0F8AF
:103280007042C4F8C0021B4901600821416002215C
:1032900081600161002141618161C1610162FEF7CC
:1032A0003FF908B1FDF7F5FA04F530740022182350
:1032B00011462068FDF756FF582300228021206820
:1032C000FDF750FFC023002281212068FDF74AFF4F
:1032D0004FF48873002201212068FDF743FF4FF46B
:1032E0008073002282212068FDF73CFF002010BD82
:1032F00074120020005C00400A06D0F8C00201F001
:103300007F0100EB411002D590F82A00704790F839
:103310002A01704710B514461A46D0F8C002234659
:10332000FDF7AFFFBDE81040FFF7B0BE10B5D0F815
:10333000C002FDF7D2FFBDE81040FFF7A7BE70B591
:1033400004460022402311462046FFF7E3FF0125F3
:10335000C4F858514026C4F86461402300228021FB
:103360002046FFF7D7FFA561666284F89C520020D3
:10337000C4F894026060C4F8A402D4F8B80228B17A
:10338000D4F8B4020021426820469047002070BD66
:1033900090F89C12042903D190F89D1280F89C1299
:1033A0000020704710B590F89C12032904D1D0F882
:1033B000B412C96901B18847002010BD0174002012
:1033C000704710B5D0F8C002FEF77AF9BDE810409A
:1033D000FFF75CBE70B5044604F52A70054600F0A0
:1033E00052F80120C4F89402B4F8AE02C4F898026E
:1033F00094F8A82212F01F000AD001280DD002284C
:1034000010D002F08001204600F011F8002070BDBD
:103410002946204600F001F9F8E72946204600F049
:1034200023FAF3E72946204600F02CF9EEE710B521
:10343000D0F8C002FDF76AFFBDE81040FFF726BED6
:1034400010B5D0F8C002FEF756F9BDE81040FFF7FE
:103450001DBE10B5D0F8C002FEF762F9BDE81040FD
:10346000FFF714BE00F52770017841700421017048
:103470000020704710B5D0F8C002FDF77AFFBDE814
:103480001040FFF703BE0A7802704A7842708A78CB
:10349000CB7802EB032242800A794B7902EB0322BC
:1034A00082808A79C97902EB0121C1807047024686
:1034B0000020002902D0C2F8B412704702207047E1
:1034C0000020704770B504468888002821D1C8883C
:1034D000F8B9488880281CD200F07F0594F89C0237
:1034E00003280DD084F89E5229462046FFF769FF35
:1034F0002046FFF75EFC45B1022084F89C0270BDB7
:103500002046BDE87040FFF721BC012084F89C02F2
:1035100070BD2046BDE87040FFF718BC10B502240E
:10352000D0F8B422002A03D01268904700B90024D2
:10353000204610BD70B504460E46304DB178297056
:10354000012905D931462046BDE87040FFF7FEBB92
:1035500094F89C0202280BD0032823D03146204641
:10356000FFF7F4FB29782046BDE87040FFF7C4BBA5
:1035700099B16160032084F89C022046FFF7CEFFDA
:10358000022804D02046BDE87040FFF712BC314647
:103590002046BDE87040FFF7D9BB2046BDE870402B
:1035A000FFF707BC91B16068884221D0C1B22046C4
:1035B000FFF7A2FB297861602046FFF7AFFF0228E2
:1035C00010D02046BDE87040FFF7F3BB022084F81E
:1035D0009C0261602046FFF78FFB2046BDE87040EB
:1035E000FFF7E7BB31462046BDE87040FFF7AEBBB2
:1035F0002046BDE87040FFF7DCBB0000B0000020B3
:103600004988012903D1C0F8A412FFF7D2BB704743
:1036100010B5FFF715FF002010BD10B500240A7883
:1036200012F060020CD0202A05D0402A03D0FFF708
:103630008DFB204610BDD0F8B42292689047F8E781
:103640004A780A2A1BD2DFE802F011171A141A0866
:10365000051A0E0BFFF7E8FBEBE7FFF733FFE8E790
:10366000FFF768FFE5E7FFF7C2FBE2E7FFF7D1FCF2
:10367000DFE7FFF7C5FFDCE7FFF745FBD9E7FFF71B
:1036800065FBD6E72DE9F04104460A46002611798C
:10369000137813F0600011D0202808D0402806D0FD
:1036A00011462046FFF752FB3046BDE8F081D4F8C2
:1036B000B4021146836820469847F5E7C3F34110EA
:1036C00001280BD05078002860D0012837D003287B
:1036D0000CD011462046FFF739FBE5E7D4F8B402D9
:1036E000114683682046BDE8F041184794F89C02D3
:1036F000022806D0032814D011462046FFF726FBE7
:10370000D2E749B1802907D02046FFF790FE8021FB
:103710002046FFF78CFEC7E711462046FFF716FB51
:10372000C2E7508838B931B1802904D0D08810B9A7
:103730002046FFF77CFE2046FFF73BFBB4E794F8FA
:103740009C02022806D0032814D011462046FFF719
:10375000FDFAA9E749B1802907D02046FFF767FEA7
:1037600080212046FFF763FE9EE711462046FFF7C3
:10377000EDFA99E75088002896D1480602D02046F5
:10378000FFF7ACFC2046FFF714FB8DE794F89C0292
:103790000027022806D0032824D011462046FFF730
:1037A000D5FA81E731B1802904D011462046FFF7D0
:1037B000CDFA79E7080607D501F07F0000EB80001D
:1037C00004EB8001143107E001F07F0000EB800082
:1037D00004EB800101F5AA710F6002222046FFF779
:1037E000DBFA61E708060CD501F00F0000EB800062
:1037F00004EB8000806968B911462046FFF7A6FAFD
:1038000052E701F00F0000EB800004EB8000D0F8DD
:10381000580148B108060CD501F07F0000EB80008C
:1038200004EB800514350CE011462046FFF78EFAB4
:103830003AE701F07F0000EB800004EB800505F51E
:10384000AA7541B1802906D02046FFF755FD20B169
:103850000120286002E02F6000E02F60022229464C
:103860002046FFF799FA1FE770B505460C46207809
:1038700010F0600209D0202A07D0402A05D0214646
:103880002846FFF763FA002070BD95F89C22012AB4
:1038900008D0022A06D0032A04D021462846FFF782
:1038A00055FAF0E7207901280ED8D5F8B402214660
:1038B000826828469047E1880029E4D10028E2D1B7
:1038C0002846FFF776FADEE721462846FFF73EFA5C
:1038D000D9E7704700487047541000202DE9F047A1
:1038E00000270D7830F8252048F68F131A40CB7842
:1038F000002B7DD0012B79D0022B02D0032B7AD064
:10390000012748F28004224320F825200A7830F865
:10391000223048F68F752B401343234320F8223082
:103920000B7B48F6BF724BF68F7848F2C0064CF21C
:10393000800CE3B30B7830F8239009EA050948F2CC
:10394000801A49EA0A0920F82390B0F8503003445D
:1039500091F8009003EBC903B1F8089029F0010930
:10396000A3F80094B0F85030034491F8009003EBB2
:10397000C903B1F80A9029F00109A3F804944B781F
:10398000002B70D00B7830F823905FEA494907D5B7
:1039900030F8239009EA050949EA0C0920F8239038
:1039A0000B7830F823905FEA496909D500E028E0F8
:1039B00030F8239009EA050949EA060920F823901E
:1039C0000B7830F823602E4046EA0C0620F823607E
:1039D000CB78012B73D00B7830F82350154085F04D
:1039E0002002224320F82320CCE001E006E002E0A0
:1039F00042F4007285E742F4C06282E742F48062DA
:103A00007FE74B7883B3B0F85030034491F800C09F
:103A100003EBCC03B1F806C02CF0010CA3F800C4F2
:103A20000B7830F823C05FEA4C6C07D530F823C020
:103A30000CEA050C4CEA060C20F823C0CB78012BCD
:103A400009D0097830F82130134083F02002224356
:103A500020F821209EE0097830F8213013402343DC
:103A600020F8213096E04DE0FFE7B0F85020024406
:103A70000B7802EBC302CB8823F00103A2F80434D5
:103A8000B0F8502002440B7802EBC30202F2064267
:103A90000B695BB13E2B13D85E08DB0700D0761CA8
:103AA0004FF6FF7303EA8623138012E0138823F492
:103AB000F8431380138843F40043138009E05AE06D
:103AC0005E09DB0600D1761E4FF4004343EA8623ED
:103AD00013800A7830F822305B0406D530F82230A3
:103AE0002B4043EA0C0320F82230097830F82120DB
:103AF00002EA080282F4805282F40052224320F843
:103B0000212047E00B7830F823905FEA494907D538
:103B100030F8239009EA050949EA0C0920F82390B6
:103B20000B7830F823C05FEA4C6C07D530F823C01F
:103B30000CEA050C4CEA060C20F823C00B7830F890
:103B400023C00CEA050C4CEA060C20F823C00B78C5
:103B500030F8235005EA080585F4805585F40055B2
:103B6000254320F82350097830F8213013402343AF
:103B700020F821300EE00B7830F823501540254313
:103B800020F82350097830F8212002EA0802224365
:103B900020F821203846BDE8F087000030B5ADF2AE
:103BA000B44D354A11885088814218D0411C89B2E1
:103BB0001044518000790025B1F5167F00D355805F
:103BC0002E4C2F492278082A53D2DFE802F0040B4A
:103BD0000F161A23323D232801D1012020700DF247
:103BE000B44D30BD488002202070F8E703222270D7
:103BF0008A7800EB02204880F1E78880042020705A
:103C0000EDE70A7900EB022088800D800520207006
:103C10006570E4E76278024462700A88531C0A44C3
:103C20000B809071088889888842D8D3062020703C
:103C3000D5E76178884202D107202070CFE711A034
:103C4000FEF7C5FB2570CAE7242810D10C4940F2C5
:103C50004E2210316846FCF7DDFA40F25E22084938
:103C600095A8FCF7D7FA95A80FC8FEF721FD257097
:103C7000B5E72570B3E70000D6060020100000204D
:103C800032090020636865636B2073756D2065726F
:103C9000726F720D0A0000002DE9F04391F80C904C
:103CA0004C780A7848F6BF764BF68F7748F2800555
:103CB00048F2C00C4CF2800848F68F73B9F1000F3F
:103CC00031D07CB330F82240640406D530F822406D
:103CD0001C4044EA080420F822400A7830F82240C8
:103CE000640606D530F822401C4044EA0C0420F853
:103CF00022400A7830F822401C4044EA080420F8A8
:103D000022400A7830F8223033402B4320F822300A
:103D1000097830F821203A402A4320F82120002059
:103D2000BDE8F08326E094B130F82240640606D561
:103D300030F822401C4044EA0C0420F82240097864
:103D400030F8212032402A4320F82120E7E730F8DC
:103D50002240640406D530F822401C4044EA08049E
:103D600020F82240097830F821203A402A4320F8F0
:103D70002120D4E730F82240640406D530F82240F0
:103D80001C4044EA080420F822400A7830F8224017
:103D9000640606D530F822401C4044EA0C0420F8A2
:103DA00022400A7830F822401C4044EA0C0420F8F3
:103DB00022400A7830F822303B402B4320F8223052
:103DC000097830F8212032402A4320F82120A6E744
:103DD00030F8581F41F4004101800020704700B5C1
:103DE000012120F8401F002101808180018240389C
:103DF00000F06DF9002000BD4BF6807230F8401FD6
:103E000091430180002070470020704730B50A7B45
:103E1000002A3BD14A7848F68F7548F28004DAB11F
:103E20000A7830F822305B0607D530F822302B4074
:103E300048F2C0052B4320F82230CA78012A25D049
:103E4000097830F8212048F6BF731A4082F020022A
:103E5000224320F8212019E00A7830F822305B0450
:103E600007D530F822302B404CF280052B4320F848
:103E70002230097830F821204BF68F731A4082F4F3
:103E8000805282F40052224320F82120002030BDCD
:103E900010B54A78097848F28003002A0AD030F831
:103EA000212048F6BF74224082F010021A4320F805
:103EB000212009E030F821204BF68F74224082F453
:103EC00080521A4320F82120002010BDF0B505468D
:103ED0000C46002294F801C0217B2669A06948F2B3
:103EE0008007BCF1010F04D0B0425CD9801BA061F7
:103EF0005BE0B04202D9801BA06101E00646A261EE
:103F000069B1207835F82010490617D5B5F850105A
:103F1000294401EBC000A0F80664628916E0B3B240
:103F2000E2882846616900F009F9B5F85000284494
:103F3000217800EBC100A0F8026426E0B5F850102B
:103F4000294401EBC000A0F802642289B3B22846DC
:103F5000616900F0F3F8607848F68F7210B10128BB
:103F60000AD012E0207835F82010114048F2C00243
:103F7000114325F8201008E0207835F82010114072
:103F80004CF28002114325F82010207835F82010DB
:103F900048F6BF72114081F0100181F020013943D1
:103FA00025F8201091E00646A2614FF6FF724FF40B
:103FB000004319B1BCF1000F24D048E0B5F850001F
:103FC0002844217800EBC10000F206404EB13E2E9D
:103FD00010D87108F30700D0491C02EA8121018042
:103FE00066E0018821F4F8410180018841F4004134
:103FF00001805DE07109F20600D1491E43EA81218A
:10400000018055E0B5F850002844217800EBC1004C
:1040100000F2024056B13E2E11D871085FEAC67C0C
:1040200000D0491C02EA8121018010E0018821F4BE
:10403000F8410180018841F40041018007E07109E5
:104040005FEAC66C00D1491E43EA81210180607895
:1040500010B1012824D02BE0B5F850002844217875
:1040600000EBC10000F206404EB13E2E10D87108A0
:10407000F30700D0491C02EA8121018018E0018881
:1040800021F4F8410180018841F4004101800FE0F2
:104090007109F20600D1491E43EA8121018007E03F
:1040A000B5F850104819217800EBC100A0F806645B
:1040B000207835F820104BF68F72114081F4805132
:1040C00081F40051394325F820100020F0BD4BF653
:1040D000807230F8401F11430180002070470000BB
:1040E0000148FDF75FB9000074120020B0F84400E9
:1040F000704710B55C08104400F58060002C08D0B3
:1041000030F8022B0A70120A4A70891C641E002CB7
:10411000F6D1DA0701D00088087010BD002902D15D
:104120008021A0F84C1000207047012120F8401F8A
:1041300000218180032101800020704710B55B1CA5
:104140005B08104400F58060002B09D00A784C7899
:10415000891C42EA042220F8022B5B1E002BF5D1B9
:1041600010BD00002DE9F84F0020904D904F07241E
:104170006A780423DFF83C924FF0050A4FF0010BF8
:104180004FF47A718046A7F21246092A0FD2DFE86F
:1041900002F0050F25374BCEE5FFF200FEF74CFB92
:1041A0002870012803D185F801B0FCF73BFCF9E049
:1041B00087F8008080A185A0FEF709F987A0FEF7A7
:1041C00006F901227A4940F6030000F08DF9022039
:1041D000687076480C30FCF763FCE3E073480C3001
:1041E000FCF742FB08B185F801B0B07B0128DED1B5
:1041F00003206870022028707EA0FEF7E8F8D1E066
:10420000B0890028D3D030680028D0D06B708149A5
:10421000484600F09DFEC5F8049003202870C5F8BC
:104220000880FEF709FBBDE0318972899142BED159
:10423000328A002ABBD02B7005E03118AB68897C2C
:104240001944A960401C8242F7DC734900916868F8
:1042500000F0FAFE87F800807089010A7970B87062
:104260000323534A40F207114FF4006000F062F953
:10427000B0897189401E81424FDB68A0A968FEF7B2
:10428000A6F86C70C6F8048000244FF4806B4FF4DD
:10429000007713E059460098FBF7D5FF09EB44205F
:1042A0003A46009900F0C2FE002032187168927CF4
:1042B00011447160401CB842F7DB641C3068B4EBF9
:1042C000502FE7D371685EA0FEF781F83068C10512
:1042D00023D0C0F30807394663A0FEF778F85946A3
:1042E0000098FBF7B0FF3A4609EB4420009900F034
:1042F0009DFE00203188C1F3080105E03318726883
:104300009B7C1A447260401C8142F7D871684CA0B3
:10431000FEF75DF885F801A044E0308A696808443A
:1043200068603089401C3081A6F810803AE085F83A
:1043300000A07068010E3970010C7970010AB97023
:10434000F87004221A4940F6040000F0CDF817482E
:104350000C30FCF7A5FB0620687023E013480C30F6
:10436000FCF782FA08B185F801A0F07B012804D09F
:10437000022807D016E011E00AE06C703EA0FEF7BC
:1043800026F80FE00820687040A0FEF720F809E04A
:1043900039A0FEF71CF885F8008003E085F801805D
:1043A0007F2028702878BDE8F88F000000000020EA
:1043B000D605002000900008424F4F544C51554301
:1043C00046442D563130303000000000426F6F748B
:1043D0005665723A25730D0A00000000446576693F
:1043E00063652053656E6420526571756573740D45
:1043F0000A00000044657669636520626567696E3E
:10440000204765745F555044415445504152410D19
:104410000A00000000000208D6010020526563690E
:1044200076652046696C65426167205375636365F4
:1044300073732D4352433D253038580D0A00000058
:104440005570646174654374726C506172612E5270
:104450006563766943524353554D202D4352433D86
:10446000253038580D0A00006C65737373697A65DE
:104470003A25640D0A00000075706461746520734C
:104480007563636573730D0A0000000075706461E5
:104490007465206661696C2D4352432043686563EF
:1044A0006B53756D206572726F720D0A000000000B
:1044B000FEE70000F0B500220A4C4FF41677002604
:1044C0000CE0238810F802C05D1C2344258083F88B
:1044D00004C02388BB4200D32680521C8A42F0D3FA
:1044E000F0BD0000D6060020F0B400230024104EDA
:1044F00023253570050A7570B070100AF07005201C
:10450000327107E0CD5C35542C44E4B2401C80B2DB
:104510005B1C9BB29342F5D3411C8AB234542423D2
:10452000501C81B2B354F0BC014800F02FB8000019
:10453000900B0020F0B400249D1C134E23273770ED
:10454000070A7770B070280AF0703571080A707128
:10455000B1710844C1B2072007E0155D3554294404
:10456000C9B2401C80B2641CA4B29C42F5D3421C68
:1045700092B2315424201346521C91B2F054F0BC34
:10458000014800F003B80000900B00202DE9F8432B
:1045900081460D4600240020009000266846FCF766
:1045A0007FFADFF8B0804FF400673F2D14D842E067
:1045B00003216846FCF758F930B1002239464046DD
:1045C000FCF7E4FC012605E03F214846FCF736F9FC
:1045D0000028EDD13F34A4B2AC42F5D33F20B5FB67
:1045E000F0F100FB115129B3B5FBF0F100FB1154C0
:1045F000281B00EB09050BE003216846FCF734F9A2
:1046000030B1002239464046FCF7C0FC012618E0D4
:1046100028462146FCF712F90028EDD111E00321CC
:104620006846FCF721F930B1002239464046FCF7D4
:10463000ADFC012605E029464846FCF7FFF80028B6
:10464000EDD126B9012239464046FCF79FFC3046A1
:10465000BDE8F8830004004837B514460846064B09
:104660006A46214600F0ECF804466946002000F056
:104670006AFC20463EBD0000474F00080907090EAE
:10468000002804DB00F1E02080F80014704700F0FF
:104690000F0000F1E02080F8141D704702E008C808
:1046A000121F08C1002AFAD170477047002001E0AC
:1046B00001C1121F002AFBD1704700002DE9FF5FE6
:1046C00082B00021DDE90430020DDDF840B0034383
:1046D00018D044F61050A2F2FF324243151411983C
:1046E00001281FD0A5EB0B00401C5FEA000A4FF029
:1046F00000064E4FDFF83891B046504615D5CAF146
:10470000000413E0119801244AA3012801D16FEAA3
:104710000B010298119AC0E90031C0E9024206B0CB
:10472000BDE8F09FCBF10000DFE704460021404ADE
:10473000491842EB0450CDE9001012E0E00707D021
:1047400032463B4640464946FBF776FE8046894660
:1047500032463B4610461946FBF76EFE06460F46AC
:104760006410002CEAD1DDE90401DDE90023BAF18F
:10477000000F06DAFBF760FE42464B46FBF75CFE95
:1047800005E0FBF7CBFE42464B46FBF7C7FE04466F
:104790000E460022284BFBF749FF03D84FF0FF30AD
:1047A000014607E00022254B20463146FBF79DFDE0
:1047B000FBF723FF102409E0002C0ADB0A22002368
:1047C000FBF762FD039B30321A55641E50EA01026A
:1047D000F2D1641C039AC4F111031444119A012A02
:1047E00003D0012208430DD10AE0084304D0002081
:1047F0004FF0110B119072E7A3EB0B056D1E0DE04E
:104800005B4504DD4FF0000205F1010504E003DA29
:104810004FF00002A5F10105002AECD00298119991
:10482000C0E90231C0E9004579E70000000014400A
:104830000000F03F300000000000F0430000E03FC7
:104840002DE9FF4F95B09A46884606460025EEE1D1
:10485000252877D100242746F94A0121039400E056
:10486000044316F8013F203B01FA03F01042F7D150
:1048700030782A2811D06FF02F033078A0F1300261
:10488000092A16D8039A44F0020402EB820203EBD1
:1048900042021044761C0390EFE758F8042B039271
:1048A000002A03DA504244F40054039044F0020416
:1048B000761C30782E2816D116F8010F44F0040427
:1048C0002A280DD06FF02F023078A0F13003092B89
:1048D00009D807EB870302EB4303C718761CF3E7FD
:1048E00058F8047B761C30786C280FD006DC4C28F6
:1048F00017D068280DD06A2814D104E0742810D08D
:104900007A280FD10DE044F400140AE044F4801436
:1049100001E044F440147278824202D104F580141C
:10492000761C761C307866280BD013DC582877D09C
:1049300009DC002875D04528F6D04628F4D0472851
:104940001AD193E118E0632835D0642879D065281E
:1049500012D18BE1702873D008DC6728F1D0692868
:104960006FD06E280DD06F2806D1ACE073282CD004
:10497000752874D0782853D05246179990476D1CEB
:1049800054E1C4F30250022809D003280DD0D8F80E
:10499000001004280DD00D6008F1040846E1D8F895
:1049A0000010EA17C1E90052F6E7D8F800100D80B0
:1049B000F2E70D70F0E718F8041B8DF800100020E6
:1049C0008DF80100EB46012003E058F804BB4FF0DE
:1049D000FF3061074FF0000102D40DE009F1010141
:1049E0008946B9420FDA8145F8DB1BF80910002926
:1049F000F4D108E009F1010189468142FADB1BF894
:104A000009100029F6D103985346A0EB0907214667
:104A10003846179A00F080FA284400EB090507E0B1
:104A200044E008E10DE01BF8010B5246179990474E
:104A3000B9F10109F7D2534621463846179AF2E0F8
:104A400039E00A21C4F302524FF0000B0091022A10
:104A500006D058F8040BC117032A09D00AE023E056
:104A600008F1070020F00702F2E80201904605E095
:104A700000B2C117042A01D140B2C117002906DAD9
:104A80000A460021404261EB02012D2202E022058C
:104A900004D52B228DF80420012203E0E20701D087
:104AA0002022F7E7914657E00A2100E010214FF05D
:104AB000000B00910BE010214FF0000B44F00404B8
:104AC0000827009103E008204FF0000B0090C4F38A
:104AD0000252022A05D058F8040B0021032A08D0FC
:104AE00008E008F1070020F00702F2E80201904612
:104AF00003E080B2042A00D1C0B24FF000092207BF
:104B00002AD53278702A07D0DDF800C08CF0100C5E
:104B10005CEA0B0C05D00EE040228DF80420012247
:104B200008E050EA010306D030238DF804308DF8F8
:104B3000052002229146009B83F0080353EA0B03F1
:104B40000AD150EA010201D1620705D530228DF861
:104B500004204FF001097F1E3278582A04D039A270
:104B60000C920CAA02920BE03BA2F9E75B46009A7A
:104B7000FBF78AFB0C9B9B5C029A521E02921370FD
:104B800050EA0102F2D1029804A9081A00F1200BA0
:104B9000600702D524F4803400E001275F4502DD80
:104BA000A7EB0B0000E0002000EB0B010090039846
:104BB0004944401A0390E00306D453462146179A0D
:104BC000039800F0A9F90544002706E001A8524621
:104BD000C05D179990476D1C7F1C4F45F6DBE003C5
:104BE0000CD553462146179A039800F095F90544D1
:104BF00004E030205246179990476D1C0099481EDA
:104C000000900029F5DC08E00298029952460078ED
:104C1000491C0291179990476D1CBBF10001ABF143
:104C2000010BF1DC5BE100F065F90544761C30789E
:104C300000287FF40DAE19B02846BDE8F08F0000C3
:104C40000928010030313233343536373839616262
:104C50006364656600000000303132333435363726
:104C6000383941424344454600000000600700D403
:104C7000062708F1070020F00700F0E8022380462D
:104C800003F0004C5FEA0C0001D097A009E020057A
:104C900001D596A005E0E00701D095A001E0AFF2B4
:104CA0004C001390307823F0004365280CD006DCCC
:104CB000452809D046281DD047287FD13BE06628EB
:104CC00018D067287AD136E00021112F01DB11209E
:104CD00000E0781CCDE9000104A90CA8FFF7EEFC68
:104CE000DDE90D010C9A4FF0000B07F1010910925C
:104CF00000914EE04FF000400097CDE9011004A96B
:104D00000CA8FFF7DBFCDDE90D020C9B0F994FF0BF
:104D1000000B91461093009211B9791C00EB010928
:104D2000B7EB090003D4C0F1FF3B07F10109A9EB80
:104D30000700019042E0012F00DA01270021112F26
:104D400001DD112000E03846CDE9000104A90CA8DE
:104D5000FFF7B4FCDDE90D010C9A00914FF0000B58
:104D6000B946109221070FD4009A4A4503DA9146BA
:104D700001E0A9F10109B9F1010F05DD109AA9F1CE
:104D80000101515C3029F4D0B84202DA10F1040F6D
:104D900003DA0121CDE9011010E0002803DC83448F
:104DA000A9EB000102E0411C494500DD8946A0EB6A
:104DB0000B00401C01904FF000400290200705D4EA
:104DC0000198484502DB4FF0FF30019000208DF83C
:104DD0004B0002980DF14B07B0F1004F25D0022097
:104DE0000C902B200D90029800280CDA4042029083
:104DF0002D200D9007E00A210298FBF72FFA3031A1
:104E0000029007F8011D0C99481E0C900029F2DC55
:104E100002980028EFD1791E0D980870307800F0C4
:104E2000200040F0450007F8020D11A8C01BC01D6E
:104E300002901398007800B1012000EB090101985D
:104E400001EBE071029801440398401A401E039060
:104E5000E00306D453462146179A039800F05CF805
:104E600005441398007818B15246179990476D1C65
:104E7000E00323D553462146179A039800F04CF8D7
:104E800005441BE0BBF1000F07DB0098584504DD2B
:104E90001098179910F80B0001E01799302052462E
:104EA000904701980BF1010B401E05F1010501909F
:104EB00004D12E205246179990476D1CB9F100017C
:104EC000A9F10109DEDC05E017F8010B524617993C
:104ED00090476D1C0299481E02900029F4DC53464D
:104EE0002146179A03989EE62D0000002B00000033
:104EF000200000002DE9F041044600251E4617461B
:104F0000880404D405E039462020B0476D1C641E97
:104F1000F9D52846BDE8F0812DE9F0410446002589
:104F20001E469046C80301D5302700E0202788049C
:104F300004D505E041463846B0476D1C641EF9D5DE
:104F40002846BDE8F0810A68531C0B60107070475A
:104F50002DE9F04186B007460E464FF00008CDF827
:104F60000480FBF7A1FE3846FBF782FD0446384675
:104F7000FBF760FD0125214614A0FDF728FA29461C
:104F800016A0FDF724FAF01BC60A314617A0FDF75C
:104F90001EFACDF8088003950494059601A902A88D
:104FA000FBF7B2FD48B1FBF731FEE10213A0FDF7BC
:104FB0000EFAA81E06B0BDE8F081E10214A0FDF7CC
:104FC00006FAFBF723FE0020F4E70000666972731F
:104FD00074706167653A25640D0A000042616E6B6A
:104FE0004E756D6265723A25640D0A004E627061FD
:104FF0006765733A25640D0A00000000457261730D
:1050000065206572726F722D253038580D0A0000C8
:105010004572617365207061676573616464726570
:1050200073732D253038580D0A00000010B5034663
:105030000846002804D01946FBF7ECF8002010BD04
:105040004FF0FF3010BD00002DE9F04180460C46C6
:10505000174600253E46700705D007F00700C0F14F
:105060000800304486B2FBF71FFE43E00021002019
:10507000002303EBC502BA4227DA082B22D2DFE86D
:1050800003F004070B0F13161A1EA25C114419E05B
:10509000A25C01EB022115E0A25C01EB024111E0F0
:1050A000A25C01EB02610DE0A25C10440AE0A25C8C
:1050B00000EB022006E0A25C00EB024002E0A25CF2
:1050C00000EB02605B1C082BD3DB0023CA184341B2
:1050D00041460020FBF7A8FD48B1FBF797FD41468C
:1050E00008A0FDF774F94FF0FF30BDE8F08108F13A
:1050F00008086D1CB5EBD60FB8DBFBF787FD002069
:10510000F3E700004552524F523A20253038583AC2
:105110002070726F6772616D206661696C65640AE8
:105120000000000072B603494868096881F30888E6
:10513000004700000090000838B500200090FBF701
:1051400039FFFDF798FBFDF7D7F8FDF775FB012850
:1051500001D1FDF711F90122D1021F48FBF716FF1B
:105160006846FBF79DFC4FF496744EF66025FEF7FB
:1051700015FDFDF779F8FEF7F5FFFF280BD010B10C
:105180007F280CD00EE015A0FDF721F9FDF7EEF811
:105190002046FBF7A7FCFFF7C5FF002038BD19A08C
:1051A000FDF715F929466846FBF75EFB0028DED0BF
:1051B0001DA0FDF70CF92046FBF794FC72B6BFF377
:1051C0004F8F27480168274A01F4E06111430160CD
:1051D000BFF34F8F00BFFDE70004004875706461A6
:1051E0007465207375636365737320616E64206AF0
:1051F000756D7020746F206170706C696361746983
:105200006F6E0000435243206572726F722075709A
:1052100064617465206661696C2D726573657420C4
:105220006E6F770D0A0000003630207365636F6E75
:1052300064732064656C6179206F76657220616E9D
:105240006420666F72636520206A756D7020746FCC
:10525000206170706C69636174696F6E000000009A
:105260000CED00E00400FA05000000000000000062
:1052700001020304060708099852000800000020F4
:10528000C40100009C07000858530008C401002016
:10529000F42E0000AC460008021BFF13ED29140891
:1052A000FD2A1408092B1B0831041AB1041A25140D
:1052B0001AC9144117040309041201140202021648
:1052C0004083044057260201020301031A1A031BFC
:1052D00001085412071B08F5041A250C2A1014099A
:1052E000162C01105324F4130A0632022A40201C03
:1052F00009024377111DC0320904311A020B13054C
:1053000024161001052401100901042402020524B9
:1053100006170107058203081C100904AD320A2E86
:105320000705010240072A81070944442A07440A65
:105330003B044413552A1408A9291408E12B4208F8
:105340001AF90C1A55041A6B04C11A3D281A3104B3
:085350001A49041A25040000AB
:04000005080001D915
:00000001FF
